{
  "_format": "hh-sol-artifact-1",
  "contractName": "BeautifulEyesNFT",
  "sourceName": "contracts/BeautifulEyesNFT.sol",
  "abi": [
    {
      "inputs": [
        {
          "internalType": "uint256",
          "name": "_saleTimeStamp",
          "type": "uint256"
        }
      ],
      "stateMutability": "nonpayable",
      "type": "constructor"
    },
    {
      "anonymous": false,
      "inputs": [
        {
          "indexed": true,
          "internalType": "address",
          "name": "owner",
          "type": "address"
        },
        {
          "indexed": true,
          "internalType": "address",
          "name": "approved",
          "type": "address"
        },
        {
          "indexed": true,
          "internalType": "uint256",
          "name": "tokenId",
          "type": "uint256"
        }
      ],
      "name": "Approval",
      "type": "event"
    },
    {
      "anonymous": false,
      "inputs": [
        {
          "indexed": true,
          "internalType": "address",
          "name": "owner",
          "type": "address"
        },
        {
          "indexed": true,
          "internalType": "address",
          "name": "operator",
          "type": "address"
        },
        {
          "indexed": false,
          "internalType": "bool",
          "name": "approved",
          "type": "bool"
        }
      ],
      "name": "ApprovalForAll",
      "type": "event"
    },
    {
      "anonymous": false,
      "inputs": [
        {
          "indexed": true,
          "internalType": "address",
          "name": "previousOwner",
          "type": "address"
        },
        {
          "indexed": true,
          "internalType": "address",
          "name": "newOwner",
          "type": "address"
        }
      ],
      "name": "OwnershipTransferred",
      "type": "event"
    },
    {
      "anonymous": false,
      "inputs": [
        {
          "indexed": true,
          "internalType": "address",
          "name": "from",
          "type": "address"
        },
        {
          "indexed": true,
          "internalType": "address",
          "name": "to",
          "type": "address"
        },
        {
          "indexed": true,
          "internalType": "uint256",
          "name": "tokenId",
          "type": "uint256"
        }
      ],
      "name": "Transfer",
      "type": "event"
    },
    {
      "inputs": [
        {
          "internalType": "address",
          "name": "to",
          "type": "address"
        },
        {
          "internalType": "uint256",
          "name": "tokenId",
          "type": "uint256"
        }
      ],
      "name": "approve",
      "outputs": [],
      "stateMutability": "nonpayable",
      "type": "function"
    },
    {
      "inputs": [
        {
          "internalType": "address",
          "name": "owner",
          "type": "address"
        }
      ],
      "name": "balanceOf",
      "outputs": [
        {
          "internalType": "uint256",
          "name": "",
          "type": "uint256"
        }
      ],
      "stateMutability": "view",
      "type": "function"
    },
    {
      "inputs": [
        {
          "internalType": "uint256",
          "name": "tokenId",
          "type": "uint256"
        }
      ],
      "name": "getApproved",
      "outputs": [
        {
          "internalType": "address",
          "name": "",
          "type": "address"
        }
      ],
      "stateMutability": "view",
      "type": "function"
    },
    {
      "inputs": [
        {
          "internalType": "address",
          "name": "owner",
          "type": "address"
        },
        {
          "internalType": "address",
          "name": "operator",
          "type": "address"
        }
      ],
      "name": "isApprovedForAll",
      "outputs": [
        {
          "internalType": "bool",
          "name": "",
          "type": "bool"
        }
      ],
      "stateMutability": "view",
      "type": "function"
    },
    {
      "inputs": [],
      "name": "isRevealed",
      "outputs": [
        {
          "internalType": "bool",
          "name": "",
          "type": "bool"
        }
      ],
      "stateMutability": "view",
      "type": "function"
    },
    {
      "inputs": [
        {
          "internalType": "address",
          "name": "to",
          "type": "address"
        }
      ],
      "name": "mint",
      "outputs": [],
      "stateMutability": "payable",
      "type": "function"
    },
    {
      "inputs": [],
      "name": "name",
      "outputs": [
        {
          "internalType": "string",
          "name": "",
          "type": "string"
        }
      ],
      "stateMutability": "view",
      "type": "function"
    },
    {
      "inputs": [],
      "name": "notRevealedMetadata",
      "outputs": [
        {
          "internalType": "string",
          "name": "",
          "type": "string"
        }
      ],
      "stateMutability": "view",
      "type": "function"
    },
    {
      "inputs": [],
      "name": "owner",
      "outputs": [
        {
          "internalType": "address",
          "name": "",
          "type": "address"
        }
      ],
      "stateMutability": "view",
      "type": "function"
    },
    {
      "inputs": [
        {
          "internalType": "uint256",
          "name": "tokenId",
          "type": "uint256"
        }
      ],
      "name": "ownerOf",
      "outputs": [
        {
          "internalType": "address",
          "name": "",
          "type": "address"
        }
      ],
      "stateMutability": "view",
      "type": "function"
    },
    {
      "inputs": [],
      "name": "renounceOwnership",
      "outputs": [],
      "stateMutability": "nonpayable",
      "type": "function"
    },
    {
      "inputs": [
        {
          "internalType": "address",
          "name": "to",
          "type": "address"
        },
        {
          "internalType": "string",
          "name": "uri",
          "type": "string"
        }
      ],
      "name": "safeMint",
      "outputs": [],
      "stateMutability": "nonpayable",
      "type": "function"
    },
    {
      "inputs": [
        {
          "internalType": "address",
          "name": "from",
          "type": "address"
        },
        {
          "internalType": "address",
          "name": "to",
          "type": "address"
        },
        {
          "internalType": "uint256",
          "name": "tokenId",
          "type": "uint256"
        }
      ],
      "name": "safeTransferFrom",
      "outputs": [],
      "stateMutability": "nonpayable",
      "type": "function"
    },
    {
      "inputs": [
        {
          "internalType": "address",
          "name": "from",
          "type": "address"
        },
        {
          "internalType": "address",
          "name": "to",
          "type": "address"
        },
        {
          "internalType": "uint256",
          "name": "tokenId",
          "type": "uint256"
        },
        {
          "internalType": "bytes",
          "name": "_data",
          "type": "bytes"
        }
      ],
      "name": "safeTransferFrom",
      "outputs": [],
      "stateMutability": "nonpayable",
      "type": "function"
    },
    {
      "inputs": [],
      "name": "saleTimeStamp",
      "outputs": [
        {
          "internalType": "uint256",
          "name": "",
          "type": "uint256"
        }
      ],
      "stateMutability": "view",
      "type": "function"
    },
    {
      "inputs": [
        {
          "internalType": "address",
          "name": "operator",
          "type": "address"
        },
        {
          "internalType": "bool",
          "name": "approved",
          "type": "bool"
        }
      ],
      "name": "setApprovalForAll",
      "outputs": [],
      "stateMutability": "nonpayable",
      "type": "function"
    },
    {
      "inputs": [
        {
          "internalType": "bool",
          "name": "_isRevealed",
          "type": "bool"
        }
      ],
      "name": "setIsRevealed",
      "outputs": [],
      "stateMutability": "nonpayable",
      "type": "function"
    },
    {
      "inputs": [
        {
          "internalType": "uint256",
          "name": "_saleTimeStamp",
          "type": "uint256"
        }
      ],
      "name": "setSaleTimeStamp",
      "outputs": [],
      "stateMutability": "nonpayable",
      "type": "function"
    },
    {
      "inputs": [
        {
          "internalType": "bytes4",
          "name": "interfaceId",
          "type": "bytes4"
        }
      ],
      "name": "supportsInterface",
      "outputs": [
        {
          "internalType": "bool",
          "name": "",
          "type": "bool"
        }
      ],
      "stateMutability": "view",
      "type": "function"
    },
    {
      "inputs": [],
      "name": "symbol",
      "outputs": [
        {
          "internalType": "string",
          "name": "",
          "type": "string"
        }
      ],
      "stateMutability": "view",
      "type": "function"
    },
    {
      "inputs": [
        {
          "internalType": "uint256",
          "name": "_tokenId",
          "type": "uint256"
        }
      ],
      "name": "tokenURI",
      "outputs": [
        {
          "internalType": "string",
          "name": "",
          "type": "string"
        }
      ],
      "stateMutability": "view",
      "type": "function"
    },
    {
      "inputs": [
        {
          "internalType": "address",
          "name": "from",
          "type": "address"
        },
        {
          "internalType": "address",
          "name": "to",
          "type": "address"
        },
        {
          "internalType": "uint256",
          "name": "tokenId",
          "type": "uint256"
        }
      ],
      "name": "transferFrom",
      "outputs": [],
      "stateMutability": "nonpayable",
      "type": "function"
    },
    {
      "inputs": [
        {
          "internalType": "address",
          "name": "newOwner",
          "type": "address"
        }
      ],
      "name": "transferOwnership",
      "outputs": [],
      "stateMutability": "nonpayable",
      "type": "function"
    }
  ],
  "bytecode": "0x60806040526040518060600160405280603581526020016200382660359139600990805190602001906200003592919062000220565b506000600a60006101000a81548160ff0219169083151502179055503480156200005e57600080fd5b506040516200385b3803806200385b8339818101604052810190620000849190620002e7565b6040518060400160405280601081526020017f42656175746966756c457965734e4654000000000000000000000000000000008152506040518060400160405280600381526020017f42454e000000000000000000000000000000000000000000000000000000000081525081600090805190602001906200010892919062000220565b5080600190805190602001906200012192919062000220565b50505062000144620001386200015260201b60201c565b6200015a60201b60201c565b80600881905550506200039c565b600033905090565b6000600760009054906101000a900473ffffffffffffffffffffffffffffffffffffffff16905081600760006101000a81548173ffffffffffffffffffffffffffffffffffffffff021916908373ffffffffffffffffffffffffffffffffffffffff1602179055508173ffffffffffffffffffffffffffffffffffffffff168173ffffffffffffffffffffffffffffffffffffffff167f8be0079c531659141344cd1fd0a4f28419497f9722a3daafe3b4186f6b6457e060405160405180910390a35050565b8280546200022e906200031d565b90600052602060002090601f0160209004810192826200025257600085556200029e565b82601f106200026d57805160ff19168380011785556200029e565b828001600101855582156200029e579182015b828111156200029d57825182559160200191906001019062000280565b5b509050620002ad9190620002b1565b5090565b5b80821115620002cc576000816000905550600101620002b2565b5090565b600081519050620002e18162000382565b92915050565b600060208284031215620002fa57600080fd5b60006200030a84828501620002d0565b91505092915050565b6000819050919050565b600060028204905060018216806200033657607f821691505b602082108114156200034d576200034c62000353565b5b50919050565b7f4e487b7100000000000000000000000000000000000000000000000000000000600052602260045260246000fd5b6200038d8162000313565b81146200039957600080fd5b50565b61347a80620003ac6000396000f3fe6080604052600436106101405760003560e01c806370a08231116100b6578063b88d4fde1161006f578063b88d4fde1461043b578063c87b56dd14610464578063d204c45e146104a1578063d2d86387146104ca578063e985e9c5146104f3578063f2fde38b1461053057610140565b806370a082311461033d578063715018a61461037a5780638da5cb5b1461039157806390bbe365146103bc57806395d89b41146103e7578063a22cb4651461041257610140565b806342842e0e1161010857806342842e0e1461023c57806349a5980a1461026557806354214f691461028e578063626a15bd146102b95780636352211e146102e45780636a6278421461032157610140565b806301ffc9a71461014557806306fdde0314610182578063081812fc146101ad578063095ea7b3146101ea57806323b872dd14610213575b600080fd5b34801561015157600080fd5b5061016c600480360381019061016791906123be565b610559565b6040516101799190612838565b60405180910390f35b34801561018e57600080fd5b5061019761063b565b6040516101a49190612853565b60405180910390f35b3480156101b957600080fd5b506101d460048036038101906101cf9190612410565b6106cd565b6040516101e191906127d1565b60405180910390f35b3480156101f657600080fd5b50610211600480360381019061020c9190612359565b610752565b005b34801561021f57600080fd5b5061023a600480360381019061023591906121ff565b61086a565b005b34801561024857600080fd5b50610263600480360381019061025e91906121ff565b6108ca565b005b34801561027157600080fd5b5061028c60048036038101906102879190612395565b6108ea565b005b34801561029a57600080fd5b506102a3610983565b6040516102b09190612838565b60405180910390f35b3480156102c557600080fd5b506102ce610996565b6040516102db9190612ab5565b60405180910390f35b3480156102f057600080fd5b5061030b60048036038101906103069190612410565b61099c565b60405161031891906127d1565b60405180910390f35b61033b6004803603810190610336919061219a565b610a4e565b005b34801561034957600080fd5b50610364600480360381019061035f919061219a565b610b02565b6040516103719190612ab5565b60405180910390f35b34801561038657600080fd5b5061038f610bba565b005b34801561039d57600080fd5b506103a6610c42565b6040516103b391906127d1565b60405180910390f35b3480156103c857600080fd5b506103d1610c6c565b6040516103de9190612853565b60405180910390f35b3480156103f357600080fd5b506103fc610cfa565b6040516104099190612853565b60405180910390f35b34801561041e57600080fd5b50610439600480360381019061043491906122c9565b610d8c565b005b34801561044757600080fd5b50610462600480360381019061045d919061224e565b610da2565b005b34801561047057600080fd5b5061048b60048036038101906104869190612410565b610e04565b6040516104989190612853565b60405180910390f35b3480156104ad57600080fd5b506104c860048036038101906104c39190612305565b610f12565b005b3480156104d657600080fd5b506104f160048036038101906104ec9190612410565b610fbf565b005b3480156104ff57600080fd5b5061051a600480360381019061051591906121c3565b611045565b6040516105279190612838565b60405180910390f35b34801561053c57600080fd5b506105576004803603810190610552919061219a565b6110d9565b005b60007f80ac58cd000000000000000000000000000000000000000000000000000000007bffffffffffffffffffffffffffffffffffffffffffffffffffffffff1916827bffffffffffffffffffffffffffffffffffffffffffffffffffffffff1916148061062457507f5b5e139f000000000000000000000000000000000000000000000000000000007bffffffffffffffffffffffffffffffffffffffffffffffffffffffff1916827bffffffffffffffffffffffffffffffffffffffffffffffffffffffff1916145b806106345750610633826111d1565b5b9050919050565b60606000805461064a90612d35565b80601f016020809104026020016040519081016040528092919081815260200182805461067690612d35565b80156106c35780601f10610698576101008083540402835291602001916106c3565b820191906000526020600020905b8154815290600101906020018083116106a657829003601f168201915b5050505050905090565b60006106d88261123b565b610717576040517f08c379a000000000000000000000000000000000000000000000000000000000815260040161070e90612a35565b60405180910390fd5b6004600083815260200190815260200160002060009054906101000a900473ffffffffffffffffffffffffffffffffffffffff169050919050565b600061075d8261099c565b90508073ffffffffffffffffffffffffffffffffffffffff168373ffffffffffffffffffffffffffffffffffffffff1614156107ce576040517f08c379a00000000000000000000000000000000000000000000000000000000081526004016107c590612a75565b60405180910390fd5b8073ffffffffffffffffffffffffffffffffffffffff166107ed6112a7565b73ffffffffffffffffffffffffffffffffffffffff16148061081c575061081b816108166112a7565b611045565b5b61085b576040517f08c379a000000000000000000000000000000000000000000000000000000000815260040161085290612995565b60405180910390fd5b61086583836112af565b505050565b61087b6108756112a7565b82611368565b6108ba576040517f08c379a00000000000000000000000000000000000000000000000000000000081526004016108b190612a95565b60405180910390fd5b6108c5838383611446565b505050565b6108e583838360405180602001604052806000815250610da2565b505050565b6108f26112a7565b73ffffffffffffffffffffffffffffffffffffffff16610910610c42565b73ffffffffffffffffffffffffffffffffffffffff1614610966576040517f08c379a000000000000000000000000000000000000000000000000000000000815260040161095d90612a55565b60405180910390fd5b80600a60006101000a81548160ff02191690831515021790555050565b600a60009054906101000a900460ff1681565b60085481565b6000806002600084815260200190815260200160002060009054906101000a900473ffffffffffffffffffffffffffffffffffffffff169050600073ffffffffffffffffffffffffffffffffffffffff168173ffffffffffffffffffffffffffffffffffffffff161415610a45576040517f08c379a0000000000000000000000000000000000000000000000000000000008152600401610a3c906129d5565b60405180910390fd5b80915050919050565b4260085410610a92576040517f08c379a0000000000000000000000000000000000000000000000000000000008152600401610a8990612875565b60405180910390fd5b6611c37937e08000341015610adc576040517f08c379a0000000000000000000000000000000000000000000000000000000008152600401610ad390612915565b60405180910390fd5b610ae6600b6116ad565b6000610af2600b6116c3565b9050610afe82826116d1565b5050565b60008073ffffffffffffffffffffffffffffffffffffffff168273ffffffffffffffffffffffffffffffffffffffff161415610b73576040517f08c379a0000000000000000000000000000000000000000000000000000000008152600401610b6a906129b5565b60405180910390fd5b600360008373ffffffffffffffffffffffffffffffffffffffff1673ffffffffffffffffffffffffffffffffffffffff168152602001908152602001600020549050919050565b610bc26112a7565b73ffffffffffffffffffffffffffffffffffffffff16610be0610c42565b73ffffffffffffffffffffffffffffffffffffffff1614610c36576040517f08c379a0000000000000000000000000000000000000000000000000000000008152600401610c2d90612a55565b60405180910390fd5b610c4060006118ab565b565b6000600760009054906101000a900473ffffffffffffffffffffffffffffffffffffffff16905090565b60098054610c7990612d35565b80601f0160208091040260200160405190810160405280929190818152602001828054610ca590612d35565b8015610cf25780601f10610cc757610100808354040283529160200191610cf2565b820191906000526020600020905b815481529060010190602001808311610cd557829003601f168201915b505050505081565b606060018054610d0990612d35565b80601f0160208091040260200160405190810160405280929190818152602001828054610d3590612d35565b8015610d825780601f10610d5757610100808354040283529160200191610d82565b820191906000526020600020905b815481529060010190602001808311610d6557829003601f168201915b5050505050905090565b610d9e610d976112a7565b8383611971565b5050565b610db3610dad6112a7565b83611368565b610df2576040517f08c379a0000000000000000000000000000000000000000000000000000000008152600401610de990612a95565b60405180910390fd5b610dfe84848484611ade565b50505050565b606060001515600a60009054906101000a900460ff1615151415610eb45760098054610e2f90612d35565b80601f0160208091040260200160405190810160405280929190818152602001828054610e5b90612d35565b8015610ea85780601f10610e7d57610100808354040283529160200191610ea8565b820191906000526020600020905b815481529060010190602001808311610e8b57829003601f168201915b50505050509050610f0d565b6000610ebe611b3a565b90506000815111610ede5760405180602001604052806000815250610f09565b80610ee884611b5a565b604051602001610ef99291906127a2565b6040516020818303038152906040525b9150505b919050565b610f1a6112a7565b73ffffffffffffffffffffffffffffffffffffffff16610f38610c42565b73ffffffffffffffffffffffffffffffffffffffff1614610f8e576040517f08c379a0000000000000000000000000000000000000000000000000000000008152600401610f8590612a55565b60405180910390fd5b6000610f9a600b6116c3565b9050610fa6600b6116ad565b610fb08382611d0d565b610fba8183611d2b565b505050565b610fc76112a7565b73ffffffffffffffffffffffffffffffffffffffff16610fe5610c42565b73ffffffffffffffffffffffffffffffffffffffff161461103b576040517f08c379a000000000000000000000000000000000000000000000000000000000815260040161103290612a55565b60405180910390fd5b8060088190555050565b6000600560008473ffffffffffffffffffffffffffffffffffffffff1673ffffffffffffffffffffffffffffffffffffffff16815260200190815260200160002060008373ffffffffffffffffffffffffffffffffffffffff1673ffffffffffffffffffffffffffffffffffffffff16815260200190815260200160002060009054906101000a900460ff16905092915050565b6110e16112a7565b73ffffffffffffffffffffffffffffffffffffffff166110ff610c42565b73ffffffffffffffffffffffffffffffffffffffff1614611155576040517f08c379a000000000000000000000000000000000000000000000000000000000815260040161114c90612a55565b60405180910390fd5b600073ffffffffffffffffffffffffffffffffffffffff168173ffffffffffffffffffffffffffffffffffffffff1614156111c5576040517f08c379a00000000000000000000000000000000000000000000000000000000081526004016111bc906128b5565b60405180910390fd5b6111ce816118ab565b50565b60007f01ffc9a7000000000000000000000000000000000000000000000000000000007bffffffffffffffffffffffffffffffffffffffffffffffffffffffff1916827bffffffffffffffffffffffffffffffffffffffffffffffffffffffff1916149050919050565b60008073ffffffffffffffffffffffffffffffffffffffff166002600084815260200190815260200160002060009054906101000a900473ffffffffffffffffffffffffffffffffffffffff1673ffffffffffffffffffffffffffffffffffffffff1614159050919050565b600033905090565b816004600083815260200190815260200160002060006101000a81548173ffffffffffffffffffffffffffffffffffffffff021916908373ffffffffffffffffffffffffffffffffffffffff160217905550808273ffffffffffffffffffffffffffffffffffffffff166113228361099c565b73ffffffffffffffffffffffffffffffffffffffff167f8c5be1e5ebec7d5bd14f71427d1e84f3dd0314c0f7b2291e5b200ac8c7c3b92560405160405180910390a45050565b60006113738261123b565b6113b2576040517f08c379a00000000000000000000000000000000000000000000000000000000081526004016113a990612975565b60405180910390fd5b60006113bd8361099c565b90508073ffffffffffffffffffffffffffffffffffffffff168473ffffffffffffffffffffffffffffffffffffffff1614806113ff57506113fe8185611045565b5b8061143d57508373ffffffffffffffffffffffffffffffffffffffff16611425846106cd565b73ffffffffffffffffffffffffffffffffffffffff16145b91505092915050565b8273ffffffffffffffffffffffffffffffffffffffff166114668261099c565b73ffffffffffffffffffffffffffffffffffffffff16146114bc576040517f08c379a00000000000000000000000000000000000000000000000000000000081526004016114b3906128d5565b60405180910390fd5b600073ffffffffffffffffffffffffffffffffffffffff168273ffffffffffffffffffffffffffffffffffffffff16141561152c576040517f08c379a000000000000000000000000000000000000000000000000000000000815260040161152390612935565b60405180910390fd5b611537838383611d9f565b6115426000826112af565b6001600360008573ffffffffffffffffffffffffffffffffffffffff1673ffffffffffffffffffffffffffffffffffffffff16815260200190815260200160002060008282546115929190612c21565b925050819055506001600360008473ffffffffffffffffffffffffffffffffffffffff1673ffffffffffffffffffffffffffffffffffffffff16815260200190815260200160002060008282546115e99190612b9a565b92505081905550816002600083815260200190815260200160002060006101000a81548173ffffffffffffffffffffffffffffffffffffffff021916908373ffffffffffffffffffffffffffffffffffffffff160217905550808273ffffffffffffffffffffffffffffffffffffffff168473ffffffffffffffffffffffffffffffffffffffff167fddf252ad1be2c89b69c2b068fc378daa952ba7f163c4a11628f55a4df523b3ef60405160405180910390a46116a8838383611da4565b505050565b6001816000016000828254019250508190555050565b600081600001549050919050565b600073ffffffffffffffffffffffffffffffffffffffff168273ffffffffffffffffffffffffffffffffffffffff161415611741576040517f08c379a000000000000000000000000000000000000000000000000000000000815260040161173890612a15565b60405180910390fd5b61174a8161123b565b1561178a576040517f08c379a0000000000000000000000000000000000000000000000000000000008152600401611781906128f5565b60405180910390fd5b61179660008383611d9f565b6001600360008473ffffffffffffffffffffffffffffffffffffffff1673ffffffffffffffffffffffffffffffffffffffff16815260200190815260200160002060008282546117e69190612b9a565b92505081905550816002600083815260200190815260200160002060006101000a81548173ffffffffffffffffffffffffffffffffffffffff021916908373ffffffffffffffffffffffffffffffffffffffff160217905550808273ffffffffffffffffffffffffffffffffffffffff16600073ffffffffffffffffffffffffffffffffffffffff167fddf252ad1be2c89b69c2b068fc378daa952ba7f163c4a11628f55a4df523b3ef60405160405180910390a46118a760008383611da4565b5050565b6000600760009054906101000a900473ffffffffffffffffffffffffffffffffffffffff16905081600760006101000a81548173ffffffffffffffffffffffffffffffffffffffff021916908373ffffffffffffffffffffffffffffffffffffffff1602179055508173ffffffffffffffffffffffffffffffffffffffff168173ffffffffffffffffffffffffffffffffffffffff167f8be0079c531659141344cd1fd0a4f28419497f9722a3daafe3b4186f6b6457e060405160405180910390a35050565b8173ffffffffffffffffffffffffffffffffffffffff168373ffffffffffffffffffffffffffffffffffffffff1614156119e0576040517f08c379a00000000000000000000000000000000000000000000000000000000081526004016119d790612955565b60405180910390fd5b80600560008573ffffffffffffffffffffffffffffffffffffffff1673ffffffffffffffffffffffffffffffffffffffff16815260200190815260200160002060008473ffffffffffffffffffffffffffffffffffffffff1673ffffffffffffffffffffffffffffffffffffffff16815260200190815260200160002060006101000a81548160ff0219169083151502179055508173ffffffffffffffffffffffffffffffffffffffff168373ffffffffffffffffffffffffffffffffffffffff167f17307eab39ab6107e8899845ad3d59bd9653f200f220920489ca2b5937696c3183604051611ad19190612838565b60405180910390a3505050565b611ae9848484611446565b611af584848484611da9565b611b34576040517f08c379a0000000000000000000000000000000000000000000000000000000008152600401611b2b90612895565b60405180910390fd5b50505050565b606060405180606001604052806036815260200161340f60369139905090565b60606000821415611ba2576040518060400160405280600181526020017f30000000000000000000000000000000000000000000000000000000000000008152509050611d08565b600082905060005b60008214611bd4578080611bbd90612d98565b915050600a82611bcd9190612bf0565b9150611baa565b60008167ffffffffffffffff811115611c16577f4e487b7100000000000000000000000000000000000000000000000000000000600052604160045260246000fd5b6040519080825280601f01601f191660200182016040528015611c485781602001600182028036833780820191505090505b50905060008290508593505b60008414611d0057600a84611c699190612de1565b6030611c759190612b9a565b60f81b8282611c8390612d0b565b92508281518110611cbd577f4e487b7100000000000000000000000000000000000000000000000000000000600052603260045260246000fd5b60200101907effffffffffffffffffffffffffffffffffffffffffffffffffffffffffffff1916908160001a905350600a84611cf99190612bf0565b9350611c54565b819450505050505b919050565b611d27828260405180602001604052806000815250611f40565b5050565b611d348261123b565b611d73576040517f08c379a0000000000000000000000000000000000000000000000000000000008152600401611d6a906129f5565b60405180910390fd5b80600660008481526020019081526020016000209080519060200190611d9a929190611fbe565b505050565b505050565b505050565b6000611dca8473ffffffffffffffffffffffffffffffffffffffff16611f9b565b15611f33578373ffffffffffffffffffffffffffffffffffffffff1663150b7a02611df36112a7565b8786866040518563ffffffff1660e01b8152600401611e1594939291906127ec565b602060405180830381600087803b158015611e2f57600080fd5b505af1925050508015611e6057506040513d601f19601f82011682018060405250810190611e5d91906123e7565b60015b611ee3573d8060008114611e90576040519150601f19603f3d011682016040523d82523d6000602084013e611e95565b606091505b50600081511415611edb576040517f08c379a0000000000000000000000000000000000000000000000000000000008152600401611ed290612895565b60405180910390fd5b805181602001fd5b63150b7a0260e01b7bffffffffffffffffffffffffffffffffffffffffffffffffffffffff1916817bffffffffffffffffffffffffffffffffffffffffffffffffffffffff191614915050611f38565b600190505b949350505050565b611f4a83836116d1565b611f576000848484611da9565b611f96576040517f08c379a0000000000000000000000000000000000000000000000000000000008152600401611f8d90612895565b60405180910390fd5b505050565b6000808273ffffffffffffffffffffffffffffffffffffffff163b119050919050565b828054611fca90612d35565b90600052602060002090601f016020900481019282611fec5760008555612033565b82601f1061200557805160ff1916838001178555612033565b82800160010185558215612033579182015b82811115612032578251825591602001919060010190612017565b5b5090506120409190612044565b5090565b5b8082111561205d576000816000905550600101612045565b5090565b600061207461206f84612af5565b612ad0565b90508281526020810184848401111561208c57600080fd5b612097848285612cc9565b509392505050565b60006120b26120ad84612b26565b612ad0565b9050828152602081018484840111156120ca57600080fd5b6120d5848285612cc9565b509392505050565b6000813590506120ec816133b2565b92915050565b600081359050612101816133c9565b92915050565b600081359050612116816133e0565b92915050565b60008151905061212b816133e0565b92915050565b600082601f83011261214257600080fd5b8135612152848260208601612061565b91505092915050565b600082601f83011261216c57600080fd5b813561217c84826020860161209f565b91505092915050565b600081359050612194816133f7565b92915050565b6000602082840312156121ac57600080fd5b60006121ba848285016120dd565b91505092915050565b600080604083850312156121d657600080fd5b60006121e4858286016120dd565b92505060206121f5858286016120dd565b9150509250929050565b60008060006060848603121561221457600080fd5b6000612222868287016120dd565b9350506020612233868287016120dd565b925050604061224486828701612185565b9150509250925092565b6000806000806080858703121561226457600080fd5b6000612272878288016120dd565b9450506020612283878288016120dd565b935050604061229487828801612185565b925050606085013567ffffffffffffffff8111156122b157600080fd5b6122bd87828801612131565b91505092959194509250565b600080604083850312156122dc57600080fd5b60006122ea858286016120dd565b92505060206122fb858286016120f2565b9150509250929050565b6000806040838503121561231857600080fd5b6000612326858286016120dd565b925050602083013567ffffffffffffffff81111561234357600080fd5b61234f8582860161215b565b9150509250929050565b6000806040838503121561236c57600080fd5b600061237a858286016120dd565b925050602061238b85828601612185565b9150509250929050565b6000602082840312156123a757600080fd5b60006123b5848285016120f2565b91505092915050565b6000602082840312156123d057600080fd5b60006123de84828501612107565b91505092915050565b6000602082840312156123f957600080fd5b60006124078482850161211c565b91505092915050565b60006020828403121561242257600080fd5b600061243084828501612185565b91505092915050565b61244281612c55565b82525050565b61245181612c67565b82525050565b600061246282612b57565b61246c8185612b6d565b935061247c818560208601612cd8565b61248581612ece565b840191505092915050565b600061249b82612b62565b6124a58185612b7e565b93506124b5818560208601612cd8565b6124be81612ece565b840191505092915050565b60006124d482612b62565b6124de8185612b8f565b93506124ee818560208601612cd8565b80840191505092915050565b6000612507601883612b7e565b915061251282612edf565b602082019050919050565b600061252a603283612b7e565b915061253582612f08565b604082019050919050565b600061254d602683612b7e565b915061255882612f57565b604082019050919050565b6000612570602583612b7e565b915061257b82612fa6565b604082019050919050565b6000612593601c83612b7e565b915061259e82612ff5565b602082019050919050565b60006125b6600e83612b7e565b91506125c18261301e565b602082019050919050565b60006125d9602483612b7e565b91506125e482613047565b604082019050919050565b60006125fc601983612b7e565b915061260782613096565b602082019050919050565b600061261f602c83612b7e565b915061262a826130bf565b604082019050919050565b6000612642603883612b7e565b915061264d8261310e565b604082019050919050565b6000612665602a83612b7e565b91506126708261315d565b604082019050919050565b6000612688602983612b7e565b9150612693826131ac565b604082019050919050565b60006126ab602e83612b7e565b91506126b6826131fb565b604082019050919050565b60006126ce602083612b7e565b91506126d98261324a565b602082019050919050565b60006126f1602c83612b7e565b91506126fc82613273565b604082019050919050565b6000612714600583612b8f565b915061271f826132c2565b600582019050919050565b6000612737602083612b7e565b9150612742826132eb565b602082019050919050565b600061275a602183612b7e565b915061276582613314565b604082019050919050565b600061277d603183612b7e565b915061278882613363565b604082019050919050565b61279c81612cbf565b82525050565b60006127ae82856124c9565b91506127ba82846124c9565b91506127c582612707565b91508190509392505050565b60006020820190506127e66000830184612439565b92915050565b60006080820190506128016000830187612439565b61280e6020830186612439565b61281b6040830185612793565b818103606083015261282d8184612457565b905095945050505050565b600060208201905061284d6000830184612448565b92915050565b6000602082019050818103600083015261286d8184612490565b905092915050565b6000602082019050818103600083015261288e816124fa565b9050919050565b600060208201905081810360008301526128ae8161251d565b9050919050565b600060208201905081810360008301526128ce81612540565b9050919050565b600060208201905081810360008301526128ee81612563565b9050919050565b6000602082019050818103600083015261290e81612586565b9050919050565b6000602082019050818103600083015261292e816125a9565b9050919050565b6000602082019050818103600083015261294e816125cc565b9050919050565b6000602082019050818103600083015261296e816125ef565b9050919050565b6000602082019050818103600083015261298e81612612565b9050919050565b600060208201905081810360008301526129ae81612635565b9050919050565b600060208201905081810360008301526129ce81612658565b9050919050565b600060208201905081810360008301526129ee8161267b565b9050919050565b60006020820190508181036000830152612a0e8161269e565b9050919050565b60006020820190508181036000830152612a2e816126c1565b9050919050565b60006020820190508181036000830152612a4e816126e4565b9050919050565b60006020820190508181036000830152612a6e8161272a565b9050919050565b60006020820190508181036000830152612a8e8161274d565b9050919050565b60006020820190508181036000830152612aae81612770565b9050919050565b6000602082019050612aca6000830184612793565b92915050565b6000612ada612aeb565b9050612ae68282612d67565b919050565b6000604051905090565b600067ffffffffffffffff821115612b1057612b0f612e9f565b5b612b1982612ece565b9050602081019050919050565b600067ffffffffffffffff821115612b4157612b40612e9f565b5b612b4a82612ece565b9050602081019050919050565b600081519050919050565b600081519050919050565b600082825260208201905092915050565b600082825260208201905092915050565b600081905092915050565b6000612ba582612cbf565b9150612bb083612cbf565b9250827fffffffffffffffffffffffffffffffffffffffffffffffffffffffffffffffff03821115612be557612be4612e12565b5b828201905092915050565b6000612bfb82612cbf565b9150612c0683612cbf565b925082612c1657612c15612e41565b5b828204905092915050565b6000612c2c82612cbf565b9150612c3783612cbf565b925082821015612c4a57612c49612e12565b5b828203905092915050565b6000612c6082612c9f565b9050919050565b60008115159050919050565b60007fffffffff0000000000000000000000000000000000000000000000000000000082169050919050565b600073ffffffffffffffffffffffffffffffffffffffff82169050919050565b6000819050919050565b82818337600083830152505050565b60005b83811015612cf6578082015181840152602081019050612cdb565b83811115612d05576000848401525b50505050565b6000612d1682612cbf565b91506000821415612d2a57612d29612e12565b5b600182039050919050565b60006002820490506001821680612d4d57607f821691505b60208210811415612d6157612d60612e70565b5b50919050565b612d7082612ece565b810181811067ffffffffffffffff82111715612d8f57612d8e612e9f565b5b80604052505050565b6000612da382612cbf565b91507fffffffffffffffffffffffffffffffffffffffffffffffffffffffffffffffff821415612dd657612dd5612e12565b5b600182019050919050565b6000612dec82612cbf565b9150612df783612cbf565b925082612e0757612e06612e41565b5b828206905092915050565b7f4e487b7100000000000000000000000000000000000000000000000000000000600052601160045260246000fd5b7f4e487b7100000000000000000000000000000000000000000000000000000000600052601260045260246000fd5b7f4e487b7100000000000000000000000000000000000000000000000000000000600052602260045260246000fd5b7f4e487b7100000000000000000000000000000000000000000000000000000000600052604160045260246000fd5b6000601f19601f8301169050919050565b7f53616c6520686173206e6f742073746172746564207965740000000000000000600082015250565b7f4552433732313a207472616e7366657220746f206e6f6e20455243373231526560008201527f63656976657220696d706c656d656e7465720000000000000000000000000000602082015250565b7f4f776e61626c653a206e6577206f776e657220697320746865207a65726f206160008201527f6464726573730000000000000000000000000000000000000000000000000000602082015250565b7f4552433732313a207472616e736665722066726f6d20696e636f72726563742060008201527f6f776e6572000000000000000000000000000000000000000000000000000000602082015250565b7f4552433732313a20746f6b656e20616c7265616479206d696e74656400000000600082015250565b7f4e6f7420456e6f75676820455448000000000000000000000000000000000000600082015250565b7f4552433732313a207472616e7366657220746f20746865207a65726f2061646460008201527f7265737300000000000000000000000000000000000000000000000000000000602082015250565b7f4552433732313a20617070726f766520746f2063616c6c657200000000000000600082015250565b7f4552433732313a206f70657261746f7220717565727920666f72206e6f6e657860008201527f697374656e7420746f6b656e0000000000000000000000000000000000000000602082015250565b7f4552433732313a20617070726f76652063616c6c6572206973206e6f74206f7760008201527f6e6572206e6f7220617070726f76656420666f7220616c6c0000000000000000602082015250565b7f4552433732313a2062616c616e636520717565727920666f7220746865207a6560008201527f726f206164647265737300000000000000000000000000000000000000000000602082015250565b7f4552433732313a206f776e657220717565727920666f72206e6f6e657869737460008201527f656e7420746f6b656e0000000000000000000000000000000000000000000000602082015250565b7f45524337323155524953746f726167653a2055524920736574206f66206e6f6e60008201527f6578697374656e7420746f6b656e000000000000000000000000000000000000602082015250565b7f4552433732313a206d696e7420746f20746865207a65726f2061646472657373600082015250565b7f4552433732313a20617070726f76656420717565727920666f72206e6f6e657860008201527f697374656e7420746f6b656e0000000000000000000000000000000000000000602082015250565b7f2e6a736f6e000000000000000000000000000000000000000000000000000000600082015250565b7f4f776e61626c653a2063616c6c6572206973206e6f7420746865206f776e6572600082015250565b7f4552433732313a20617070726f76616c20746f2063757272656e74206f776e6560008201527f7200000000000000000000000000000000000000000000000000000000000000602082015250565b7f4552433732313a207472616e736665722063616c6c6572206973206e6f74206f60008201527f776e6572206e6f7220617070726f766564000000000000000000000000000000602082015250565b6133bb81612c55565b81146133c657600080fd5b50565b6133d281612c67565b81146133dd57600080fd5b50565b6133e981612c73565b81146133f457600080fd5b50565b61340081612cbf565b811461340b57600080fd5b5056fe697066733a2f2f516d5a3557784b57724c37664d466e5170624863444447685341343250507751694d584c37677542347636774a642fa264697066735822122082695b9000e2e8798e0fa2d986cb9d4e01bf41638cc899be46e438a45ee0de8a64736f6c63430008040033697066733a2f2f516d57583162785459784d7467736e5a5141315077576b565a744d395a5947664a4d734c5542677a507370314d4b",
  "linkReferences": {},
  "deployedLinkReferences": {}
}